:100000000C9462000C948A000C948A000C948A0070
:100010000C948A000C948A000C948A000C948A0038
:100020000C948A000C948A000C948A000C9420048E
:100030000C948A000C948A000C948A000C948A0018
:100040000C94D6030C948A000C94A4030C947E03A5
:100050000C948A000C948A000C948A000C948A00F8
:100060000C948A000C948A000000000024002700F1
:100070002A0000000000250028002B0000000000DE
:1000800023002600290004040404040404040202DA
:100090000202020203030303030301020408102007
:1000A0004080010204081020010204081020000012
:1000B0000008000201000003040700000000000027
:1000C0000000DC0411241FBECFEFD8E0DEBFCDBF9F
:1000D00011E0A0E0B1E0E2E3F1E102C005900D9291
:1000E000AE35B107D9F722E0AEE5B1E001C01D920F
:1000F000AB37B207E1F710E0C2E6D0E004C02197C9
:10010000FE010E949108C136D107C9F70E94590526
:100110000C9497080C940000E0E7F1E0A089B18905
:1001200082E08C93A485B5851C92A685B7858FEC5B
:100130008C93108EA489B58986E08C93A289B389AB
:100140008C9180618C93A289B3898C9188608C9307
:10015000A289B3898C9180688C930288F389E02D01
:1001600080818F7D80830895CF92DF92EF92FF92FE
:10017000DC01A03282E0B807D4F5A53BB10514F04C
:10018000A4EBB0E04091790228E830E0241B31096B
:1001900047FD3395220F331F220F331F6901330FA1
:1001A000EE08FF0840917A0228E532E0241B31096D
:1001B00047FD3395220F331F220F331F032E000CF0
:1001C000440B550B2C193D094E095F09B7FF02C0BE
:1001D000B0E0A0E00E946E0824EB30E040E050E088
:1001E0000E944408C20ED31EE41EF51ED601E09103
:1001F0007802EC3080F52091790288E890E0821B4B
:10020000910927FD9395880F991F880F991FA817AB
:10021000B90784F020917A0288E592E0821B910967
:1002200027FD9395880F991F880F991FA817B90765
:100230000CF4CD010297880F991F4FB7F8942E2F19
:1002400030E0F901EE0FFF1FE20FF31FED5AFD4FF3
:10025000928381834FBFFF90EF90DF90CF900895FE
:10026000AF92BF92CF92DF92EF92FF920F931F93C4
:10027000CF93DF936C017B018B01040F151FEB0102
:100280005E01AE18BF08C017D10759F06991D601B9
:10029000ED91FC910190F081E02DC6010995892B2B
:1002A00079F7C501DF91CF911F910F91FF90EF90EA
:1002B000DF90CF90BF90AF900895FC01538D448D97
:1002C000252F30E0842F90E0821B930B541710F001
:1002D000CF96089501970895FC01918D828D98170E
:1002E00061F0A28DAE0FBF2FB11D5D968C91928DE6
:1002F0009F5F9F73928F90E008958FEF9FEF089517
:10030000FC01918D828D981731F0828DE80FF11DDF
:10031000858D90E008958FEF9FEF0895FC01918DFA
:10032000228D892F90E0805C9F4F821B91098F73F3
:100330009927089580E791E00E948E0121E0892BA2
:1003400009F420E0822F089580E090E0892B29F0C5
:100350000E949A0181110C9400000895FC01A48D63
:10036000A80FB92FB11DA35ABF4F2C91848D90E0D7
:1003700001968F739927848FA689B7892C93A089BA
:10038000B1898C91837080648C93938D848D981344
:1003900006C00288F389E02D80818F7D80830895D7
:1003A000EF92FF920F931F93CF93DF93EC0181E0C5
:1003B000888F9B8D8C8D98131AC0E889F98980816C
:1003C00085FF15C09FB7F894EE89FF896083E8899F
:1003D000F98980818370806480839FBF81E090E091
:1003E000DF91CF911F910F91FF90EF900895F62E1E
:1003F0000B8D10E00F5F1F4F0F731127E02E8C8DB8
:100400008E110CC00FB607FCFACFE889F9898081FC
:1004100085FFF5CFCE010E94AE01F1CFEB8DEC0F41
:10042000FD2FF11DE35AFF4FF0829FB7F8940B8F19
:10043000EA89FB8980818062CFCFCF93DF93EC0183
:10044000888D8823B9F0AA89BB89E889F9898C91BC
:1004500085FD03C0808186FD0DC00FB607FCF7CF78
:100460008C9185FFF2CF808185FFEDCFCE010E9478
:10047000AE01E9CFDF91CF910895833081F028F468
:10048000813099F08230A9F008958730A9F0883042
:10049000C9F08430B1F4809180008F7D03C08091D9
:1004A00080008F7780938000089584B58F7784BD16
:1004B000089584B58F7DFBCF8091B0008F778093B6
:1004C000B00008958091B0008F7DF9CFCF93DF9376
:1004D000282F30E0F901E255FF4F8491F901E656EB
:1004E000FF4FD491F901EA57FF4FC491CC23A1F0FB
:1004F00081110E943D02EC2FF0E0EE0FFF1FE45847
:10050000FF4FA591B491EC91ED2381E090E009F4C7
:1005100080E0DF91CF91089580E090E0FACF1F93C3
:10052000CF93DF93282F30E0F901E255FF4F8491FC
:10053000F901E656FF4FD491F901EA57FF4FC491F4
:10054000CC23A9F0162F81110E943D02EC2FF0E080
:10055000EE0FFF1FEE58FF4FA591B4918FB7F8949F
:10056000EC91111108C0D095DE23DC938FBFDF9191
:10057000CF911F910895DE2BF8CFCF93DF9390E0BA
:10058000FC01E656FF4F24918A579F4FFC0184914E
:100590008823D1F090E0880F991FFC01E859FF4FA4
:1005A000A591B491FC01EE58FF4FC591D491611112
:1005B0000EC09FB7F8948C91E22FE0958E238C9318
:1005C0002881E223E8839FBFDF91CF9108958FB701
:1005D000F894EC91E22BEC938FBFF6CF3FB7F894F1
:1005E0008091640190916501A0916601B0916701CD
:1005F00026B5A89B05C02F3F19F00196A11DB11D7E
:100600003FBFBA2FA92F982F8827BC01CD01620FB9
:10061000711D811D911D42E0660F771F881F991F74
:100620004A95D1F708952FB7F894609160017091C1
:10063000610180916201909163012FBF0895FC01D7
:1006400001900020E9F73197AF01481B590BBC011D
:1006500080E791E00C9430018F929F92AF92BF920D
:100660000F931F93CF93DF93CDB7DEB7A1970FB64C
:10067000F894DEBF0FBECDBF19A2423008F44AE0A5
:100680008E010F5D1F4F842E912CB12CA12CA50142
:1006900094010E942208E62FB901CA01EA30F4F45D
:1006A000E05DD801EE938D01232B242B252B79F7C8
:1006B00090E080E0109719F0CD010E941F03A196F1
:1006C0000FB6F894DEBF0FBECDBFDF91CF911F9163
:1006D0000F91BF90AF909F908F900895E95CE1CF0C
:1006E000CF93DF930E941F03EC0184E191E00E940D
:1006F0001F038C0F9D1FDF91CF9108951F920F92C2
:100700000FB60F9211242F933F934F935F936F93E4
:100710007F938F939F93AF93BF93EF93FF9380E764
:1007200091E00E94AE01FF91EF91BF91AF919F9137
:100730008F917F916F915F914F913F912F910F908A
:100740000FBE0F901F9018951F920F920FB60F9229
:1007500011242F938F939F93EF93FF93E091800148
:10076000F09181018081E0918601F091870182FD05
:100770001BC09081809189018F5F8F7320918A01C6
:10078000821741F0E0918901F0E0E059FE4F958F2A
:1007900080938901FF91EF919F918F912F910F90FD
:1007A0000FBE0F901F9018958081F4CF1F920F926B
:1007B0000FB60F9211242F933F938F939F93AF9374
:1007C000BF938091600190916101A0916201B0910D
:1007D000630130915F0123E0230F2D3758F5019617
:1007E000A11DB11D20935F01809360019093610171
:1007F000A0936201B09363018091640190916501BF
:10080000A0916601B09167010196A11DB11D809371
:10081000640190936501A0936601B0936701BF9155
:10082000AF919F918F913F912F910F900FBE0F909D
:100830001F90189526E8230F0296A11DB11DD2CF57
:100840001F920F920FB60F9211242F933F934F9345
:100850005F936F937F938F939F93AF93BF93CF9348
:10086000DF93EF93FF9380915E01C0917702D0E018
:1008700087FF24C0109285001092840080915E0151
:100880008F5F80935E0180915E01082E000C990BB2
:100890008C179D0724F480915E018C30C4F1809107
:1008A000840090918500049680349C4908F47AC0B5
:1008B0008091840090918500049676C080915E01BD
:1008C000082E000C990B8C179D07C4F6E0915E0171
:1008D0008E2FEE0F990BFC01EE0FFF1FE80FF91F93
:1008E000ED5AFD4F808186FFC9CFE0915E018E2FCA
:1008F000EE0F990BFC01EE0FFF1FE80FF91FED5AE9
:10090000FD4F808160E08F730E948F02B7CF2091EE
:10091000840030918500E0915E018E2FEE0F990BDF
:10092000FC01EE0FFF1FE80FF91FED5AFD4F81810B
:100930009281820F931F9093890080938800E091A9
:100940005E018E2FEE0F990BFC01EE0FFF1FE80FDB
:10095000F91FED5AFD4F808186FF11C0E0915E01C5
:100960008E2FEE0F990BFC01EE0FFF1FE80FF91F02
:10097000ED5AFD4F808161E08F730E948F02FF91DD
:10098000EF91DF91CF91BF91AF919F918F917F9127
:100990006F915F914F913F912F910F900FBE0F90EC
:1009A0001F90189580E49CE99093890080938800BB
:1009B0008FEF80935E01E3CF10927301109272016A
:1009C00088EE93E0A0E0B0E080937401909375010D
:1009D000A0937601B093770186E091E09093710146
:1009E0008093700185EC90E090937D0180937C0171
:1009F00084EC90E090937F0180937E0180EC90E006
:100A0000909381018093800181EC90E09093830129
:100A10008093820182EC90E0909385018093840121
:100A200086EC90E090938701809386011092890173
:100A300010928A0110928B0110928C011092130275
:100A400010921402109215021092160210921702C0
:100A5000109218021092190210921A0210921B02A0
:100A600010921C0210921D0210921E0210921F0280
:100A7000109220021092210210922202809177029D
:100A80008C3098F491E0980F9093770280937802DD
:100A900090E0FC01EE0FFF1FE80FF91FED5AFD4F2C
:100AA00088EB9BE09283818308958FEF8093780297
:100AB0000895789484B5826084BD84B5816084BDD6
:100AC00085B5826085BD85B5816085BD80916E00EC
:100AD000816080936E00109281008091810082601D
:100AE000809381008091810081608093810080915A
:100AF00080008160809380008091B1008460809349
:100B0000B1008091B00081608093B00080917A0044
:100B1000846080937A0080917A00826080937A006A
:100B200080917A00816080937A0080917A00806859
:100B300080937A001092C10010924F0210925002DE
:100B4000109251021092520210920F021092100253
:100B500010921102109212020E9413036B017C0189
:100B60004B015C0128EB820E2BE0921EA11CB11CF4
:100B70000E9413036C157D058E059F0528F08616CF
:100B80009706A806B906A0F70E94EE024B015C0189
:100B9000C8EECC2EC3E0DC2EE12CF12C0E94EE023C
:100BA000681979098A099B09683E73408105910596
:100BB000A8F331E0C31AD108E108F10848EE840E29
:100BC00043E0941EA11CB11CC114D104E104F10442
:100BD00029F70E948C000E94130360930F02709308
:100BE0001002809311029093120287E191E00E941B
:100BF0001F030E9413036B017C014B015C018AE01F
:100C0000880E911CA11CB11C0E9413036C157D055C
:100C10008E059F0528F086169706A806B906A0F748
:100C200081E0809323020E948C00809178028C30B6
:100C300008F051C061E083E00E94BD02809178021B
:100C4000282F30E0F901EE0FFF1FE20FF31FED5ADE
:100C5000FD4F9081907C9360908310927902109266
:100C60007A022CE0622F0E948508829FB001112435
:100C700030E020E0AB01420F531FFA01EE0FFF1FDF
:100C8000E40FF51FED5AFD4F908196FD16C02F5FC2
:100C90003F4F2C30310571F781110FC01092800049
:100CA00082E0809381001092850010928400B19AB6
:100CB00080916F00826080936F00E09178028E2FA8
:100CC00090E0FC01EE0FFF1FE80FF91FED5AFD4FFA
:100CD00080818064808360E088E00E94BD0260E0E3
:100CE00089E00E94BD0280E0282E80E0382E94EF3B
:100CF000892E99249394A12CB12C0DE210E0C7E821
:100D0000D0E00E941303672B682B692B09F4DCC029
:100D10000E941303C0906C01D0906D01E0906E01B1
:100D2000F0906F016C157D058E059F0508F415C1C7
:100D3000C0906C01D0906D01E0906E01F0906F0159
:100D40009B01AC012C193D094E095F0969017A012B
:100D50003AEFC316D104E104F10408F4BDC0609376
:100D60006C0170936D0180936E0190936F0180927E
:100D70001B0290921C02A0921D02B0921E021092C1
:100D80001F021092200210922102109222028091E2
:100D9000130290911402A0911502B0911602809353
:100DA000170290931802A0931902B0931A020E949E
:100DB00013036093130270931402809315029093AF
:100DC00016020E94130360930F0270931002809327
:100DD0001102909312020E9413036B017C0188E2BE
:100DE00091E00E941F034AE061E070E080E090E043
:100DF0000E942C038FE291E00E941F034AE0C7018A
:100E0000B6010E942C0381E391E00E941F038091B0
:100E1000130290911402A0911502B0911602A7013D
:100E20009601281B390B4A0B5B0BCA01B9014AE03A
:100E30000E942C0381E391E00E941F036091130242
:100E4000709114028091150290911602C0901702C1
:100E5000D0901802E0901902F0901A026C197D09E6
:100E60008E099F094AE00E942C0383E391E00E94CF
:100E70001F030E9413034AE00E942C0385E391E0C4
:100E80000E9470030E9413036B017C012B013C0143
:100E900035E0430E511C611C711C0E9413036C153C
:100EA0007D058E059F0528F04616570668067906CB
:100EB000A0F70E94130360931302709314028093AF
:100EC00015029093160208C00E9413036230710548
:100ED0008105910508F01CCF88E00E9466027C0124
:100EE00090936B0180936A0189E00E946602AC01D5
:100EF000909369018093680191E0EA94EF2809F0EA
:100F000090E021E0452B09F020E0922379F18091D7
:100F10000001909101018838910541F18CE391E045
:100F20000E94700310930101009300018091000161
:100F30009091010188389105CCF40E94B40084E4BA
:100F400091E00E941F0380910001909101010196A0
:100F50009093010180930001E9CF60936C0170933D
:100F60006D0180936E0190936F01E2CE209100019C
:100F70003091010191E04091680150916901413047
:100F8000510509F090E081E040916A0150916B01B8
:100F9000452B09F080E0982311F12C323105F9F04E
:100FA00086E491E00E947003D0930101C093000198
:100FB00080910001909101018D329105BCF10E9458
:100FC000B40084E491E00E941F038091000190919D
:100FD000010101979093010180930001E9CFC901BC
:100FE0000E94B4008FE491E00E947003C090000161
:100FF000D09001010D2C000CEE08FF084AE0C7015B
:10100000B601F7FE0DC06DE280E791E00E94D001CD
:1010100066277727CB016C197D098E099F094AE065
:101020000E942C0384E191E00E941F0321143104EB
:1010300009F467CE0E949A01882309F462CE0E94C7
:1010400000005FCEA1E21A2EAA1BBB1BFD010DC042
:10105000AA1FBB1FEE1FFF1FA217B307E407F50768
:1010600020F0A21BB30BE40BF50B661F771F881F44
:10107000991F1A9469F760957095809590959B01DA
:10108000AC01BD01CF010895052E97FB1EF400941D
:101090000E945B0857FD07D00E94220807FC03D07E
:1010A0004EF40C945B0850954095309521953F4F38
:1010B0004F4F5F4F089590958095709561957F4F44
:1010C0008F4F9F4F08950E947608A59F900DB49F63
:1010D000900DA49F800D911D11240895B7FF0C94CD
:1010E00063080E946308821B930B0895A29FB001BE
:1010F000B39FC001A39F700D811D1124911DB29F4C
:10110000700D811D1124911D0895991B79E004C073
:10111000991F961708F0961B881F7A95C9F7809536
:101120000895EE0FFF1F0590F491E02D0994F894B7
:02113000FFCFEF
:101132005A0000000000D00130015D011D028E0145
:101142006C0180010D0A00564D4450565F317C31CE
:101152005F564D4450560A00564D4450455F003A82
:10116200323A007C005F564D445045006469726516
:10117200697461002E006573717565726461007334
:0E11820074616E642D42792061743A20000081
:107E0000112484B714BE81FFF0D085E080938100F7
:107E100082E08093C00088E18093C10086E0809377
:107E2000C20080E18093C4008EE0C9D0259A86E02C
:107E300020E33CEF91E0309385002093840096BBD3
:107E4000B09BFECF1D9AA8958150A9F7CC24DD24C4
:107E500088248394B5E0AB2EA1E19A2EF3E0BF2EE7
:107E6000A2D0813461F49FD0082FAFD0023811F036
:107E7000013811F484E001C083E08DD089C08234E0
:107E800011F484E103C0853419F485E0A6D080C0E4
:107E9000853579F488D0E82EFF2485D0082F10E0AE
:107EA000102F00270E291F29000F111F8ED06801E7
:107EB0006FC0863521F484E090D080E0DECF843638
:107EC00009F040C070D06FD0082F6DD080E0C81688
:107ED00080E7D80618F4F601B7BEE895C0E0D1E017
:107EE00062D089930C17E1F7F0E0CF16F0E7DF06D8
:107EF00018F0F601B7BEE89568D007B600FCFDCFD4
:107F0000A601A0E0B1E02C9130E011968C91119780
:107F100090E0982F8827822B932B1296FA010C0160
:107F200087BEE89511244E5F5F4FF1E0A038BF0790
:107F300051F7F601A7BEE89507B600FCFDCF97BE46
:107F4000E89526C08437B1F42ED02DD0F82E2BD052
:107F50003CD0F601EF2C8F010F5F1F4F84911BD097
:107F6000EA94F801C1F70894C11CD11CFA94CF0C13
:107F7000D11C0EC0853739F428D08EE10CD085E9AC
:107F80000AD08FE07ACF813511F488E018D01DD067
:107F900080E101D065CF982F8091C00085FFFCCF94
:107FA0009093C60008958091C00087FFFCCF809118
:107FB000C00084FD01C0A8958091C6000895E0E648
:107FC000F0E098E1908380830895EDDF803219F02E
:107FD00088E0F5DFFFCF84E1DECF1F93182FE3DFCA
:107FE0001150E9F7F2DF1F91089580E0E8DFEE27F6
:047FF000FF270994CA
:027FFE00040479
:0400000300007E007B
:00000001FF